:1000000068EF0CF068961200046ED8CF05F0E0CFD0
:1000100006F00001E9CF0CF0EACF07F0E1CF08F0DD
:10002000E2CF09F0D9CF0AF0DACF0BF0F3CF12F01C
:10003000F4CF13F0FACF14F0F5CF15F0F6CF16F099
:10004000F7CF17F000C00EF001C00FF002C010F0A3
:1000500003C011F09DA030EF00F09EB0EDEF00F076
:10006000A0AA36EF00F0A1BA0AEF07F00EC000F028
:100070000FC001F010C002F011C003F00CC0E9FF86
:1000800007C0EAFF078E08C0E1FF09C0E2FF0AC00F
:10009000D9FF0BC0DAFF12C0F3FF13C0F4FF14C086
:1000A000FAFF15C0F5FF16C0F6FF17C0F7FF0450A2
:1000B00006C0E0FF05C0D8FF1000F76ACA0FF66E51
:1000C000000EF7220900F55012000002FFFFFFFFAB
:1000D000FFFFFFFFFFFFFFFFFFFFF76AEA0FF66E6C
:1000E000000EF7220900F550120040004000000009
:1000F0000000000000000000000000000000000000
:1001000000000000000000000000F76A1A0FF66E01
:10011000010EF7220900F55012000902200001012A
:100120000080FA0904000002FFFFFF0007058102BA
:1001300040000107050102400001F76A4A0FF66E10
:10014000010EF7220900F55012000100F76A5C0F5A
:10015000F66E010EF7220900F5501200120110018F
:1001600000000040B8033713010001020301F76AE1
:100170007E0FF66E010EF7220900F55012000403FF
:1001800009041C0348006500790065002000480050
:1001900061006D00610064006D00610064001E0379
:1001A00044004D0058002D0043006F006E007400A5
:1001B00072006F006C006C00650072001E0332005C
:1001C00030003100310030003300310038003100A0
:1001D000340035003000300037001A2AD8B41B2A0A
:1001E0009E9036EF00F06D92699468A402D06894F6
:1001F000FCD7689819EF07F0400E0401016F040E58
:100200000101D16F100ED1C103F4E8CF02F4880EC2
:100210000401006F046B040E076F500E066F00019F
:10022000120070A002D0E8DF7090689A23EF07F008
:100230006A6A68922BEF07F00101DD91DCBFDD8176
:10024000DC9FDC51100803E2000E016E1AD0DDA124
:100250000DD0036ADC51000130DFFF0802E1000E1F
:1002600001D0010E016E01010CD00BD0036ADC51EC
:10027000000123DFFF0802E1000E01D0010E016E34
:100280000101000112000101DC51DE03F3CF01F096
:10029000F4CF00F0DF03F3500026DD51DE03F3500E
:1002A0000020026E00011200036A0101DB51700F91
:1002B000E96E0F0E0320EA6EEF6ADBC1DCF100018C
:1002C000BBDF015228E00101DD6BDBC1DCF1DF6B3C
:1002D000080EDE6F0001D7DF010101C0E9FF040E47
:1002E0000224EA6EEF6ADD6BDBC1DCF1DF6B080E26
:1002F000DE6F0001C8DF02C0DDF101C0DCF1040ED9
:100300000101DC27000EDD23DCC1E9FF040EDD2541
:10031000EA6EEF6A00011200010E0101DA6FDA5194
:100320000F0807E3DAC1DBF10001BEDF0101DA2BC0
:10033000F6D7000112000101286B276BD06BD05358
:100340000AE1036AD051290FE96E010E0320EA6E1B
:10035000EF6AD02BF4D71E6B010E1F6F1D6B0001CF
:1003600012006B6A696A6A6A686A6E6A706AD4DFC8
:10037000E2DF160E706E68A602D044DEFCD79F0E38
:100380006B6E3D0E696E6D9837DF030E0101226FB3
:10039000000133EF07F0698469986D823BEF07F045
:1003A000689C43EF07F0D5C123F1120001012369D6
:1003B000000112000101D36B2751281139E0D351FC
:1003C0003F0836E32051000A000105E0020A0CE074
:1003D000010A13E01AD026C103F0010125510001E2
:1003E00094DEE8CFD4F111D026C103F001012551EC
:1003F0000001BDDEE8CFD4F108D026C103F0010131
:1004000025510001A3DEE8CFD4F10101252BD8B49A
:10041000262B2751D8B428072707D351D32B500FA9
:10042000E96E040EEA6ED8B0EA2AD4C1EFFFC4D751
:100430002751281104E1D351400801E01D6BD3C1BD
:10044000D5F10001B0DF12000101D26B266B256BE4
:10045000206B04011351010A000105E0030A0AE0C0
:10046000010A0DE02DD00101286B120E276F030E3B
:10047000206F29D00101286B200E276F24D0020E97
:100480000101206FD26B040112510101D25D0BE218
:1004900026C103F0255100016ADE01012527000E67
:1004A0002623D22BF0D726C103F0255100015FDEB1
:1004B000036AE8CF27F1010103C028F104D000014D
:1004C00075DF15D00101040117530CE10101285318
:1004D00005E127510401165D05E20101286B16C4F0
:1004E00027F10401010E01011D6F000163DFCAEF56
:1004F00003F00101D25306E1040E226F00010CDF6C
:10050000EAD00101050E226F040ED56F900ED46F54
:10051000010ED36FD3510F08D8A0DDD0D3C1DBF1CA
:100520000001C2DE0101D66B036AD3510001C5DDB3
:10053000FF0867E0040E0101D66FD890D335036A37
:100540000001CBDD0900F5CF03F00101D76F03C037
:10055000D8F1DD6BD3C1DCF1DF6B080EDE6F00017B
:1005600092DE01C0DAF1010E01010124016E000EDC
:100570000220036E01C0E9FF040E0324EA6ED7C116
:10058000EFFFDD6BD3C1DCF1DF6B080EDE6F000126
:100590007ADE01C0DAF1020E01010124016E000EC3
:1005A0000220036E01C0E9FF040E0324EA6ED5C1E8
:1005B000ECFFED52D4C1EFFFD890D335036A0001B0
:1005C0008CDD0900F5CF03F00101D4270350D523BA
:1005D000880ED96FD8A101D0D981D8A301D0D983F1
:1005E000DD6BD3C1DCF1DF6B080EDE6F00014BDE8B
:1005F000010101C0E9FF040E0224EA6ED9C1EFFF38
:100600000001036A0101D351000157DDFF0848E0F2
:100610000101D683DD6BD3C1DCF1DF6B080EDE6F29
:10062000000131DE02C0DBF101C0DAF1040E01018C
:10063000DA27000EDB23020EDA25016E000EDB2125
:10064000036E01C0E9FF040E0324EA6ED5C1ECFF7E
:10065000ED52D4C1EFFFD890D335036A00013DDDE0
:100660000900F5CF03F00101D4270350D523DD6B3A
:10067000D3C1DCF1DF6B080EDE6F000104DE02C0C7
:10068000DBF101C0DAF1040E0101DA27000EDB23F1
:10069000DAC1E9FF040EDB25EA6E400EEF6E0001C1
:1006A0000101D651060802E10E0ED66F036AD3513E
:1006B000000103DD010803E00101D6890001036A9E
:1006C0000101D351700FE96E0F0E0320EA6ED6C1FF
:1006D000EFFFD32B1FD70001C2EF03F0040111512C
:1006E000000A00010DE0010A15E0020A21E0060AF5
:1006F0002CE0030A33E00E0A33E0010A39E049D066
:100700001FC150F40401516B020E0101D56F0001AD
:100710004ADE40D00401122D08D0010E01011F173E
:10072000D56B000140DE03D0040100013FDE32D072
:100730000401122D07D001011F83D56B000133DEA8
:1007400003D00401000132DE25D0020E01011D6F2D
:1007500012C424F1D56B000126DE1CD075D61AD048
:100760001EC150F4010E0101D56F00011CDE12D034
:100770000401125101080BE312C41EF112C4D2F19C
:100780000001B7D60101D56B00010DDE04010001A7
:1007900001D00CDE10EF05F01EC1D2F104011151A1
:1007A000000A000105E00A0A0CE0010A2CE041D031
:1007B0000401506B516B020E0101D56F0001F3DD96
:1007C00039D00101D2531CE0010ED25D036A000151
:1007D000B4DC016E0401145DD8A002D0010110D078
:1007E000036A1451290FE96E010E0320EA6EEFCF60
:1007F00050F4010E0101D56F0001D5DD03D00101D8
:100800000001D4DD17D00101D25310E0036A0401C6
:100810001451290FE96E010E0320EA6E12C4EFFF96
:100820000101D56B0001BFDD03D001010001BEDD78
:1008300001D0BCDD10EF05F00101D391D2BFD3810F
:10084000D29FD3A119D0DD6BD2C1DCF1DF6B080ED2
:10085000DE6F000118DD02C0D5F101C0D4F1040E35
:100860000101D427000ED523D4C1E9FF040ED525FC
:10087000EA6E880EEF6E0FD0DD6BD2C1DCF1DF6B5C
:10088000080EDE6F0001FFDC010101C0E9FF040E6C
:100890000224EA6EEF6A036AD251700F016E0F0EE6
:1008A000032201C0E9FF03C0EAFFEF900001D9EF86
:1008B00004F00101D391D2BFD381D29FD3A119D02B
:1008C000DD6BD2C1DCF1DF6B080EDE6F0001DBDC1B
:1008D00002C0D5F101C0D4F1040E0101D427000EED
:1008E000D523D4C1E9FF040ED525EA6E840EEF6E40
:1008F00010D0DD6BD2C1DCF1DF6B080EDE6F0001C2
:10090000C2DC010101C0E9FF040E0224EA6E840E7C
:10091000EF6E0001E1EF04F00101D391D2BFD3816A
:10092000D29FD3A119D0DD6BD2C1DCF1DF6B080EF1
:10093000DE6F0001A8DC02C0D6F101C0D5F1040EC3
:100940000101D527000ED623D5C1E9FF040ED62517
:10095000EA6EEFCFD4F110D0DD6BD2C1DCF1DF6BEA
:10096000080EDE6F00018FDC010101C0E9FF040EFB
:100970000224EA6EEFCFD4F1D4AF02D0D4B502D0C6
:10098000000E01D0010E016E0001EDEF04F014C461
:10099000DCF152DC01522EE004011151010A000188
:1009A00005E0020A0BE0030A11E023D014C4D2F1DF
:1009B00043D70101D56B0001F6DC1CD014C4D2F181
:1009C00078D70101D56B0001EEDC14D00401506B27
:1009D000516B14C4D2F100019FD7015204E0010E03
:1009E0000401506F0001020E0101D56F0001DBDC34
:1009F00001D0DCDC10EF05F001011D6B040110518A
:100A00007F0B000A000105E0010A05E0030A05E08A
:100A100006D064D605D0C0D603D0B9D701D0C6DC85
:100A2000AAEF06F00101DD6BD2C1DCF1DF6B080E2D
:100A3000DE6F000128DC010101C0E9FF040E022481
:100A4000EA6EEFCFD4F1D351020806E1D4AD02D063
:100A5000D36B02D0010ED36FD35103081BE1840E78
:100A6000D46FDD6BD2C1DCF1DF6B080EDE6F0001ED
:100A70000ADC02C0D8F101C0D7F1040E0101D7276A
:100A8000000ED823D7C1E9FF040ED825EA6E840EE4
:100A9000EF6E07D0D32D03D0C80ED46F02D0880ECE
:100AA000D46FD890D235036A00016DEC00F00900D4
:100AB000F5CF03F00101D56F03C0D6F1DD6BD2C1D4
:100AC000DCF1DF6B080EDE6F000143EC01F001C0CA
:100AD000D7F1010E01010124016E000E0220036E08
:100AE00001C0E9FF040E0324EA6ED5C1EFFFD6A1D1
:100AF00001D0D481D6A301D0D483DD6BD2C1DCF187
:100B0000DF6B080EDE6F000143EC01F0010101C054
:100B1000E9FF040E0224EA6ED4C1EFFF00011200C7
:100B2000036A0101D751700FE96E0F0E0320EA6EC0
:100B3000EF521BE0DD6BD7C1DCF1DF6B080EDE6F1F
:100B4000000143EC01F002C0D9F101C0D8F1040E5C
:100B50000101D827000ED923D8C1E9FF040ED925F9
:100B6000EA6EEFCFDAF1DAAF02D0000E01D0010E5B
:100B7000016E00011200D2C1D7F1D2DF0152D8B408
:100B80009BD00101DD6BD2C1DCF1DF6B080EDE6FA3
:100B9000000143EC01F002C0D8F101C0D7F1040E0E
:100BA0000101D727000ED823010ED725016E000EB4
:100BB000D821036E01C0E9FF040E0324EA6ED3C1FD
:100BC000EFFFD551020820E1DD6BD2C1DCF1DF6B14
:100BD000080EDE6F000143EC01F002C0D8F101C045
:100BE000D7F1040E0101D727000ED823D7C1E9FFA2
:100BF000040ED825EA6EEFCFD6F1D6AD02D0D56B74
:100C000002D0010ED56F1AD0D551040817E1DD6B63
:100C1000D2C1DCF1DF6B080EDE6F000143EC01F0A6
:100C2000010101C0E9FF040E0224EA6EEFCFD6F104
:100C3000D6AD03D0010ED56F01D0D56BD52D03D025
:100C4000480ED66F02D0080ED66FDD6BD2C1DCF134
:100C5000DF6B080EDE6F000143EC01F002C0D8F13B
:100C600001C0D7F1040E0101D727000ED823D7C148
:100C7000E9FF040ED825EA6ED6C1EFFFDD6BD2C1C5
:100C8000DCF1DF6B080EDE6F000143EC01F002C007
:100C9000D8F101C0D7F1040E0101D727000ED823E7
:100CA000D7C1E9FF040ED825EA6EEF508009EF6E38
:100CB000010E016E04D00001000E016E0101000161
:100CC00012000101D25300E100011200D3C16EFFF6
:100CD0000101D35303E0040E226F02D0020E226FF3
:100CE00000017AEF06F001011E6B1D6B24C1D3F1E8
:100CF0000001ECD78BEF06F00101D2530DE11D2D61
:100D000005D00001DAEC01F006D001011D51020806
:100D100003E10001E8D701010001120001012131C6
:100D2000D06FD033D0331F0ED01721534EE10401C2
:100D300000513C0B0101D16F430E0401001701016A
:100D4000D151340825E104010451800B01E0046B0A
:100D5000000152D66D980101233D07D0D26B030EDE
:100D6000D36F00015FDE12D00101D26B020ED36F90
:100D7000000158DE01012351FE0809E0D26BD46B5B
:100D800023C1D3F1040ED56F0001F5DE01011CD0A3
:100D9000D151040819E1D26B000193DF0101D26B3C
:100DA000020ED36F00013EDE01012351FE080CE06C
:100DB000233D01D009D0D26BD46B23C1D3F1010EF6
:100DC000D56F0001D8DE010122D02151040812E1C3
:100DD0002369D26B000190DF0101233D01D009D0CE
:100DE000D26BD46B23C1D3F1020ED56F0001C3DEE9
:100DF00001010DD021B506D0D0C1D2F1000161DFD3
:100E000005D00101D0C1D2F1000176DF010100015E
:100E10004FEF07F0A19A01012253D8B449D068528C
:100E2000D8B446D068A406D069A404D00001F3EF7A
:100E300000F001016DB23CD068AA06D069AA04D0C6
:100E4000000111EF01F0010168A206D069A204D0EF
:100E5000000118EF01F0010168A006D069A004D0DC
:100E60000001B1EF01F0010168A806D069A804D023
:100E70000001CBEF01F0010168AC06D069AC04D0F1
:100E80000001D0EF01F00101CF6B68A60AD069A67E
:100E900008D06CCF21F1000102EC00F03FD703D065
:100EA000010106D000010101CF51CF2B0308EDE273
:100EB000000136EF00F0010EEA6E790EE96EEF5098
:100EC0000EE0050E016E006A002EFED7012EFBD744
:100ED0002E0E006E002EFED700D0EF2EF2D712009D
:100EE0006D926D6A696A080E6F6E94503009010147
:100EF000946E226B196AF2BE198EF29E00019BEC71
:100F000001F019BEF28E86EF07F0EAD7B6EF07F0D0
:100F1000196AF2BE198EF29E9BEC01F019BEF28E98
:100F20006D926D6A6D8C00D000D000006D9C140E27
:100F30006F6E696A6D86010E0101226F0001A4EFD8
:100F400007F06DB601D0E4D70101222D0BD06DBAA8
:100F500009D0686A696AA08AC00EF212110E696E21
:100F6000020E226F0001B7EF07F0CFD7EAD70101D9
:100F700022510208D8B402D00001F8D70001A0EF36
:100F80000CF001011E5302E10400FCD70001A2EFA6
:100F90000CF0B896000EAF6EA20EAC6E900EAB6E5B
:100FA000010E01011C6F0001A4EF0CF09EA8FED7FA
:100FB00001017951AD6EACA2FED70A0E006E002E73
:100FC000FED700000001120001011EC101F0000166
:100FD000EFEF0CF0036A01017851700FE96E0F0E0C
:100FE0000320EA6EEF521DE0196AF2BE198EF29EDE
:100FF000DD6B78C1DCF1DF6B080EDE6F000143ECC6
:1010000001F019BEF28E02C07AF101C079F101013E
:1010100001C0E9FF040E0224EA6EEFCF7BF17BAF43
:1010200002D0000E01D0010E016E0001F7EF0CF0AE
:10103000196AF2BE198EF29E0101DD6BC0C1DCF1AE
:10104000DF6B080EDE6F000143EC01F019BEF28E7B
:1010500001C0CAF1020E01010124016E000E02203E
:10106000036E01C0E9FF040E0324EA6EECCFC6F163
:10107000ED52EFCFC5F1196AF2BE198EF29EDD6B0B
:10108000C0C1DCF1DF6B080EDE6F000143EC01F044
:1010900019BEF28E01C0CAF1010E01010124016ED8
:1010A000000E0220036E01C0E9FF040E0324EA6E65
:1010B000C96BEFCFC8F1196AF2BE198EF29EDD6BD3
:1010C000C0C1DCF1DF6B080EDE6F000143EC01F004
:1010D00019BEF28E010101C0E9FF040E0224EA6E7E
:1010E000EFCFC7F1C7A101D0C981C7A301D0C98380
:1010F000C951C45D08E303E1C351C85D04E2C9C13D
:10110000C4F1C8C1C3F1C2C1EAFFC1C1E9FFC6C190
:10111000E2FFC5C1E1FFC4C102F0C3C101F0015249
:1011200002E0022A02D0025206E0E6CFEEFF012ED4
:10113000FCD7022EFAD7C3C101F0C4C102F00001EE
:10114000ADEF08F0BBC1C0F1BDC1C2F1BCC1C1F17E
:10115000BFC1C4F1BEC1C3F16BD702C0BFF101C0B2
:10116000BEF1196AF2BE198EF29EBBC1D2F1020E17
:101170000101D36F000156DC19BEF28E0101BEC120
:1011800001F0BFC102F00001D1EF08F0010E010132
:10119000BB6FBD6F7A0EBC6FBF6B400EBE6F0001A0
:1011A000D1D701C0BAF1036A0101BA517A0FE96ED1
:1011B000010E0320EA6EEF6A79C1EAFF78C1E9FF08
:1011C000010EE26E7A0EE16EE752E6CFEEFFFCE131
:1011D000000101EF0DF081C185F180C184F185C16D
:1011E00003F0010184C1E9FF85C1EAFFEF5230E05D
:1011F00083C187F182C186F187C103F086C1E9FF0F
:1012000087C1EAFFEF520AE18051845D006E81518F
:101210008559036E00C001F023D010D084C1E9FFCE
:1012200085C1EAFFEFCF88F187C103F086C1E9FFEE
:1012300087C1EAFFEF50885D01E104D0862BD8B466
:10124000872BDAD7842BD8B4852B0001C8D70101AE
:101250008051845D006E81518559036E00C001F09C
:101260000001A6EF09F081C185F180C184F185C13B
:1012700003F0010184C1E9FF85C1EAFFEF522AE0D2
:1012800083C187F182C186F187C103F086C1E9FF7E
:1012900087C1EAFFEF5218E084C1E9FF85C1EAFF88
:1012A000EFCF88F187C103F086C1E9FF87C1EAFF6C
:1012B000EF50885D05E184C101F085C102F00DD0D9
:1012C000862BD8B4872BE0D7842BD8B4852B00018C
:1012D000CED70101000E016E026E0001C1EF09F0D0
:1012E00081C183F180C182F183C103F0010182C118
:1012F000E9FF83C1EAFFEF5206E0822BD8B4832BCB
:101300000001F2D701018051825D006E8151835945
:10131000036E00C001F0026E00011200010178515D
:10132000791104E079C103F0785103D02BC103F0A7
:101330002A517C6F03C07DF17DC181F17CC180F1B8
:101340007BC183F17AC182F1000145D701500101CF
:101350007C27000E7D237DC103F07CC1E9FF7DC1A8
:10136000EAFFEF5204E1000E016E026E31D07DC142
:1013700081F17CC180F17BC183F17AC182F10001EE
:1013800072D702C07FF101C07EF101017E5302E1FC
:101390007F530DE07EC1E9FF7FC1EAFFEF6A7E2B3C
:1013A000D8B47F2B7FC12BF17EC12AF10DD07DC136
:1013B00081F17CC180F1000193DF015001017C25A6
:1013C0002A6F02507D212B6F7CC101F07DC102F09C
:1013D00000011200006A016A01018151D89082B1B6
:1013E00000260032013282B300260032013282B57B
:1013F00000260032013282B700260032013282B963
:1014000000260032013282BB00260032013282BD4A
:1014100000260032013282BF002600320132000174
:101420007AEF0AF001017F6B7D6B0A0E7E6F7C6B99
:101430007A517B1103E1000E016EBBD07F517F2BEF
:101440007A25E96E000E7B21EA6EEFCF80F18051A4
:101450002D080CE1010E7D6F7F517F2B7A25E96EFF
:10146000000E7B21EA6EEFCF80F10CD080512B086B
:1014700009E17F517F2B7A25E96E000E7B21EA6E10
:10148000EFCF80F180512F08D8B08BD08051390830
:10149000D8A087D0805130081EE17F517A25E96EAF
:1014A000000E7B21EA6EEF50780809E07F517A2523
:1014B000E96E000E7B21EA6EEF5058080CE1100E29
:1014C0007E6F7F2B7F517F2B7A25E96E000E7B216B
:1014D000EA6EEFCF80F17E510A081CE180512F089F
:1014E00018E28051390815E30A0E816F7CC182F140
:1014F000000170D7300E0101805D01247C6F7F51A7
:101500007F2B7A25E96E000E7B21EA6EEFCF80F10A
:10151000E5D747D07E51100844E18051600806E2CB
:1015200080517A0803E38051DF0B01D08051806F36
:1015300080512F0803E28051390806E280514008AB
:1015400030E2805146082DE380512F080CE2805193
:10155000390809E37C39816FF00E8117300E805D08
:1015600081257C6F09D07C39816FF00E8117410E87
:10157000805D0A0F81257C6F7F517F2B7A25E96E74
:10158000000E7B21EA6EEFCF80F18051600806E209
:1015900080517A0803E38051DF0B01D08051806FC6
:1015A000C7D77D2D04D07E510A0801E17C6D7CC136
:1015B00001F0000112000101996B9A6B010E9B6F03
:1015C000DA6AD96A9E6F910E9D6F010EEA6E950ED2
:1015D000E96E9EC1E2FF9DC1E1FF9BC19CF1D890E5
:1015E000E550EE02F3509923F4509A239C2FF7D73D
:1015F00099C1DEFF9AC199F19A6BD8B09A2B9D2BB5
:10160000D8B49E2B9B2B9B510508DFE100011200F3
:10161000196AF2BE198EF29E8FC1D7F190EC05F0D7
:1016200019BEF28E015254E0196AF2BE198EF29E72
:101630000101DD6B8FC1DCF1DF6B080EDE6F000195
:1016400043EC01F019BEF28E02C098F101C097F18F
:10165000040E01019727000E9823020E9725016EB4
:10166000000E9821036E01C0E9FF040E0324EA6E08
:10167000ECCF96F1ED52EFCF95F196C1EAFF95C10F
:10168000E9FF91C1E2FF90C1E1FF93C102F092C175
:1016900001F0015202E0022A02D0025206E0E6CF37
:1016A000EEFF012EFCD7022EFAD7196AF2BE198E70
:1016B000F29E8FC1D2F193C1D4F192C1D3F194C102
:1016C000D5F10001BBEC05F019BEF28E015002D03D
:1016D000000E016E12000101836B826BD8907C3585
:1016E000036A00016DEC00F00900F5CF03F0010181
:1016F000876F03C088F18351805DD8A06FD004E16B
:101700007F51825DD8B06AD0906B8F6B8E6B81C138
:101710008DF190C194F18FC193F18EC192F181C18D
:1017200091F1986B976B030E966FE80E956F000121
:1017300042DF03C08CF102C08BF101C08AF100C00E
:1017400089F1010182517F5D8D6F835180598E6FC8
:1017500088518E5D09E303E18D51875D05E288C103
:1017600086F187C185F106D082517F5D856F8351F7
:101770008059866F82517D258D6F83517E218E6FBA
:101780007CC18FF1916F8DC190F186C193F185C1BC
:1017900092F1020E946F00013BDF0101849101B0D0
:1017A000848184B10AD000D000D0FF0E8927D8A050
:1017B0008A27D8A08B27D8A08C2784B10AD0815340
:1017C000D9E08953D7E18A53D5E18B53D3E18C53C8
:1017D000D1E187518227885183238DD77F51825D44
:1017E00056E18051835D53E1906B8F6B8E6B81C1AD
:1017F0008DF190C194F18FC193F18EC192F181C1AD
:1018000091F1986B976B030E966FE80E956F000140
:10181000D2DE03C08CF102C08BF101C08AF100C09E
:1018200089F17CC18FF10101916B906B936B926B8D
:10183000020E946F0001ECDE0101849101B08481FD
:1018400084B10AD000D000D0FF0E8927D8A08A2703
:10185000D8A08B27D8A08C2784B119D08153D8A4C5
:1018600002D00001DED78953D8B402D00001D9D705
:101870008A53D8B402D00001D4D78B53D8B402D045
:101880000001CFD78C53D8B402D00001CAD7000EC4
:1018900084B1010E016E000166EF0CF079C181F197
:1018A00078C180F11DDD02C07BF101C07AF1010E2B
:1018B00001017C6F79C17EF178C17DF102C080F1B8
:1018C00001C07FF1280E816F000105D75CEF0DF09C
:1018D000F86AD09E078EB896000EAF6EA20EAC6E60
:1018E000900EAB6E1B6A1A6AB50ECD6ECF6ACE6AC9
:1018F0009E909D80C150C00B0F09C16E070EB46E43
:1019000001012A6B2B6B0A0E306F316B313D01D018
:101910000AD0036A31511C0FE96E000E0320EA6EF3
:10192000EF6A312BF3D7020E786FFA0E796F000150
:101930005BEC07F00101782FF8D70001B5EF07F055
:10194000C1EF07F0C9EF07F001011C51010A0001C6
:1019500003E0030A29E03DD00A0E0101796F00017E
:101960005BEC07F0B886310EAF6E000EB06EA60EBF
:10197000AC6E900EAB6E0101796B0001D6EC07F0F6
:10198000ACA2FED7B896000EAF6EA20EAC6E900E53
:10199000AB6E0101796B0001D6EC07F0020E01017C
:1019A0001C6F1B6B000115D0036A01011B511C0F3A
:1019B000E96E000E0320EA6EEFCF79F10001D6EC5C
:1019C00007F001011B2B30511B5D02E1010E1C6F62
:1019D000000101011C2DB9D70001E4EF07F001520D
:1019E0006BE0010E0101786F0001EAEF07F0015290
:1019F00063E0010E0101796F320E786F0001C6EFCE
:101A000008F03B0E0101766F776B010E796F320E95
:101A1000786F010E7B6F760E7A6F00017FDC02C05B
:101A200073F101C072F10101796B786B010E7B6F6C
:101A3000760E7A6F000172DC02C075F101C074F19C
:101A400073C17BF172C17AF1EDDC010E015C006EB5
:101A5000E8BE0FD000500101305DD8A002D00001D7
:101A600008D073C17BF172C17AF10001DBDC01C0E7
:101A700030F173C17BF172C17AF1D4DC010E015CEB
:101A8000036A1C0F016E000E032201C078F103C02F
:101A900079F175C17BF174C17AF10001C3DC79C1C0
:101AA000EAFF78C1E9FF01C0EFFF010E0101796F84
:0C1AB000320E786F0001F2D647D7FFD746
:020000040030CA
:0E00000023CC391E008700000FC00FE00F4018
:00000001FF
;PIC18F4550
;CRC=2985  CREATED="19-Sep-16 14:37"
